:020000040800F2
:10000000C0080020091D0008691A00086B1A0008C2
:1000100000000000000000000000000000000000E0
:100020000000000000000000000000006D1A000841
:1000300000000000000000006F1A0008711A00089C
:10004000CB10000800000000031100085313000843
:10005000771E0008831E0008A51E0008A71E0008C2
:1000600000000000A91E0008AB1A0008AB1E000823
:10007000AD1E0008AF1E0008B11E00080000000001
:10008000B31E0008B51E0008B71E0008B91E000800
:10009000BB1E0008BD1E0008BF1E0008C11E0008D0
:1000A000C31E0008C51E0008C71E0008DB1A000892
:1000B000C91E0008CB1E0008000000000000000060
:1000C0000000000000000000000000000000000030
:1000D00000000E1F1F0E0000000000B0B000000066
:1000E000001C1C00001C1C000000000000000000A0
:1000F00000041F1F041F1F040040F0F040F0F040F8
:10010000000C1E73711808000020301C9CF0600069
:10011000183C243D1B060C000060C0B078487830C5
:10012000000D1F121E0C000000E0F01090E0F09097
:100130000000001C1C000000000000000000000087
:100140000000030F1C1000000000E0F81C04000079
:100150000000101C0F0300000000041CF8E0000069
:100160000001050703070501000040C080C04000F2
:100170000001010707010100000000C0C0000000ED
:100180000000000000000000000000343C380000C7
:100190000001010101010100000000000000000059
:1001A00000000000000000000000003030300000BF
:1001B00000000001071E1800001878E08000000011
:1001C00000000F1F10161F0F0000E0F0D010F0E02D
:1001D0000004040C1F1F000000000000F0F00000ED
:1001E000000C1C10111F0E00003070D09010100079
:1001F000000C1C11111F0E000060701010F0E000C8
:1002000000001F1F0007070000C0C04040F0F04082
:10021000001F1F11111110000010101030E0C0005D
:100220000003071E1A13010000E0F01010F0E000B8
:1002300000101011171E1800000070F08000000060
:10024000000E1F13111F0E0000E0F01090F0E000F0
:10025000000F1F10101F0F00000090B0F0C08000B2
:1002600000000006060600000000003030300000EC
:100270000000000606060000000000343C380000C4
:10028000000103060C181000000080C06030100050
:100290000002020202020200008080808080800052
:1002A0000010180C0603010000103060C080000030
:1002B000000C1C11131E0C00000000B0B000000068
:1002C0000F1F101113121F0FE0F01090D050D0D05C
:1002D00000070F18180F070000F0F08080F0F00002
:1002E000001F1F11111F0E0000F0F01010F0E000B1
:1002F000000F1F10101C0C0000E0F01010706000C8
:10030000001F1F10180F070000F0F01030E0C000B1
:10031000001F1F111111100000F0F010101010003C
:10032000001F1F111111100000F0F000000000006C
:10033000000F1F10101C0C0000E0F01090F0F000F7
:10034000001F1F01011F1F0000F0F00000F0F0006F
:100350000000101F1F100000000010F0F01000003F
:1003600000000000001F1F000060701010F0E0008F
:10037000001F1F01071E180000F0F000C0F0300041
:10038000001F1F000000000000F0F010101010000F
:10039000001F1F0403041F1F00F0F0008000F0F096
:1003A000001F1F0603011F1F00F0F0000080F0F087
:1003B000000F1F10101F0F0000E0F01010F0E00001
:1003C000001F1F11111F0E0000F0F00000000000C0
:1003D000000F1F10101F0F0000E0F01018FCE400C9
:1003E000001F1F11111F0E0000F0F00080F07000C0
:1003F000000C1E13111808000020301090F060004F
:100400000010101F1F101000000000F0F00000008E
:10041000001F1F00001F1F0000E0F01010F0E000A0
:10042000001F1F00001F1F0000C0E03030E0C000B0
:10043000001F1F0003001F1F0080F0708070F080FD
:1004400000181C07031C18000070F00080F07000FA
:10045000001E1F01011F1E00000000F0F000000040
:1004600000101011131E1C000070F09010101000EE
:1004700000001F1F101000000000FEFE020200001E
:1004800000181E070100000000000080E07818003E
:10049000000010101F1F000000000202FEFE0000FE
:1004A000001030606030100000000000000000000C
:1004B000000000000000000002020202020202022C
:1004C000000040607010000000000000000000000C
:1004D00000000404040703000060F09090F0F000B6
:1004E000001F1F040407030000F0F01010F0E000EC
:1004F000000307040406020000E0F01010302000A2
:1005000000030704041F1F0000E0F01010F0F000CB
:10051000000307040407030000E0F09090908000BF
:1005200000010F1F111111000000F0F00000000089
:10053000000307040407070000E2F21212FEFC00A9
:10054000001F1F040407030000F0F00000F0F0009B
:100550000004043737000000001010F0F010100005
:10056000000004043737000000020202FEFC000015
:10057000001F1F000107060000F0F080C07030006F
:100580000010101F1F000000001010F0F0101000ED
:10059000000707040704070300F0F000E000F0F094
:1005A000000707040407030000F0F00000F0F0006B
:1005B000000307040407030000E0F01010F0E0005F
:1005C000000707040407030000FEFE1010F0E0001F
:1005D000000307040407070000E0F01010FEFE000F
:1005E000000707010206060000F0F000000000000E
:1005F00000030704040404000010909090F06000D1
:1006000000041F1F040404000000E0F0101010009C
:10061000000707000007070000E0F01010F0F000EE
:10062000000707000007070000C0E03030E0C0000E
:10063000000707000300070700C0F030C030F0C01B
:100640000006070101070600003070C0C0703000CE
:10065000000707000007070002E2F2161CF8E0009E
:100660000004040405070600003070D0901010004C
:100670000000010F1E1000000080C0783C04000044
:100680000000001F1F000000000000FEFE00000030
:100690000000101E0F0100000000043C78C0800024
:1006A0000C1810180C040C180000000000000000CA
:1006B00080B55B49CD4800F011FA01BDF0B599B0A5
:1006C0000121480400F0BAFA0121880400F0B6FACA
:1006D0000121012000F0BCFA6D46012028710024A0
:1006E000AC7100020090EC716C719026F6056946C1
:1006F000300000F0EBFA8020400100906946CB48C2
:1007000000F0E4FA80214901C84800F016FB80217E
:100710004900300000F011FB02262E71EC806C7154
:10072000B00300906946C14800F0D0FA3503009547
:100730006946BE4800F0CAFA00220D21BB4800F00D
:10074000FEFA00220F21B94800F0F9FA012108034E
:1007500000F07EFA0121012000F070FA14A88481D3
:100760000481C4800682F02109018180C021090230
:1007700001808021C1818222520042808F00478106
:100780000C200690102005900D94C0480490CE00D7
:100790000A9608910B94BE480390800D0990079427
:1007A0000C9502A80A210170012181700521417078
:1007B00000F0D6FAB74D03A9280000F009FB01228A
:1007C0000221280000F02BFB0121280000F01BFB78
:1007D000B14D14A9280000F03BFB0121280000F0D6
:1007E0005BFB00F079FB00F0CDFB0121380000F04D
:1007F0002FFA0EA90C711294119410960E94139462
:10080000A64C200000F02CFC0EA9200000F037FCC4
:100810000121200000F045FCFFF74AFF19B0F0BDB0
:1008200032020000FCB580231B029849487E42003A
:100830001418A4B26D486200805A6A461080487E3F
:10084000C00779D50020694A019400246D462D889F
:100850001D4200D02024019D6D00961C765B1E4237
:1008600002D02600082434435519AD881D4202D019
:10087000250002242C435B0805000F2D38D801A663
:10088000765DB7440E1E3A540E1E3A540E1E3A546C
:100890000E1E3A544510AD0F2D18AD106E0075198F
:1008A0004C5525E04510AD0F2D18AD106E00751993
:1008B0004D192E78A70137432F70A4086C7017E0EC
:1008C0004510AD0F2D18AD106E0075194D196E78CD
:1008D000270137436F70240909E04510AD0F2D182B
:1008E000AD106E0075194D19AE78A4003443AC708C
:1008F000401C1028A9DB487E401CC2B2602A00D1EF
:10090000002048760020C860086148610A7E930094
:10091000CB18CC69DC6080252D06AC4206D10125C0
:100920001D61521CD3B2032B00D100220A76600055
:1009300000D10320C861F3BD00202C4A019400249B
:100940006D462D881D4200D00124019D6D00961C2E
:10095000765B1E4202D02600042434435519AD882C
:100960001D4202D0250010242C435B0805000F2DEA
:1009700038D801A6765DB7440E1E3A540E1E3A547E
:100980000E1E3A540E1E3A544510AD0F2D18AD10E0
:100990006E0075194C5525E04510AD0F2D18AD10A2
:1009A0006E0075194D192E78A70137432F70A408D2
:1009B0006C7017E04510AD0F2D18AD106E00751955
:1009C0004D196E78270137436F70240909E04510EF
:1009D000AD0F2D18AD106E0075194D19AE78A4002D
:1009E0003443AC70401C1028A9DB84E78802002047
:1009F000202A00DA7047F0B50023344CC5186D008A
:100A000064196788FF258D40AF43314DAC46160011
:100A100006256E436546AD19ED18C03D2D788D4015
:100A20003D4365805B1C062BE7DBF0BD00040048FE
:100A3000F8B506000F001400200000F03FFB050091
:100A400006E022783900B0B2FFF7D2FFB61D641C71
:100A50002800451E0006F4D1F1BD202A00DA7047B7
:100A600070B5002319491B4C15016419E4181A4D7F
:100A70006419C5186D004D1926783602247A26436C
:100A80006E805B1C082BEEDB70BD000000000020B8
:100A90000C30014030000240003001400024014091
:100AA000F8B506000F001400200000F007FB050059
:100AB00006E022783900B0B2FFF7CFFF0836641C99
:100AC0002800451E0006F4D1F1BD00008802002078
:100AD00054130008C000000800FEFFFF002200BF02
:100AE000094202D0491E4254FCD17047F0B50400BF
:100AF00000206B4D29686B4E72000C230B40042BB9
:100B00001ED0082B02D00C2B17D018E02B682868B9
:100B10000F219F0C0F40BF1CC0235B02034003D179
:100B200038009108484306E0AB6A10001940491CA0
:100B300000F0CCFA7843020002E05B4A00E03200A9
:100B400022602B68594A21681B061B0FD35CD940D1
:100B500061602B685B055B0FD25CD140A160EA6AE3
:100B6000D20501D4524905E02A68520401D449084B
:100B700000E08908E16080210902EA6A520601D496
:100B80004C4A00E00A002261EA6AD20601D432002F
:100B900000E0226862610322EB6A134001D1A2687F
:100BA00004E0EB6A1340012B02D12268A2610AE043
:100BB000EB6A1340022B01D1A16104E0EB6A1A40F9
:100BC000032A00D1A661C0229202EB6A134001D130
:100BD000A26805E0EB6A13404F00BB4202D12268D5
:100BE000E2610BE0EB6A13408F00BB4201D1E1618F
:100BF00004E0EB6A1340934200D1E661C022120385
:100C0000EB6A134001D1A1680BE0EB6A1340CF00FF
:100C1000BB4201D1216804E0EB6A13400F01BB42E3
:100C200001D1216204E0E96A1140914200D12662BB
:100C3000E96A090600D41C486062F0BD1E4A00291A
:100C4000116802D0084310607047814311607047FB
:100C50001A4A0029116802D0084310607047814386
:100C600011607047164A0029116802D008431060CD
:100C70007047814311607047124A0029116802D001
:100C80000843106070478143116070470E4A002985
:100C9000116802D0084310607047814311607047AB
:100CA0000410024000127A00006CDC0220000020D8
:100CB000809FD500128000001410024018100240DE
:100CC0001C1002400C10024010100240F0B500232E
:100CD00001229A400C681440944228D15C000326FB
:100CE000A640F5430E79012E01D0022E0FD1866861
:100CF0002E40866086684F79A74037438760868894
:100D00009643868082888E799E401643868002684C
:100D10002A40026002680E79A64016430660C26847
:100D20001540C560C268CD79A5401543C5605B1C00
:100D3000102BCDD3F0BD816170470185704710B590
:100D4000CB089B00C0188B001C211940036A0F249C
:100D50008C40A3430362036A8A401A43026210BDB7
:100D600070B503781F2101228478002C16D0144C12
:100D70001D000326B54364192568DE00182333409F
:100D8000FF269E40B5434678B607360E9E402E435A
:100D90002660007801408A400A4802E019408A40F3
:100DA0000948026070BD09490428086803D104227B
:100DB00002430A60704704229043086070470000B5
:100DC00000E400E000E100E080E100E010E000E08D
:100DD00002681E4B13408A681A430B6A13430A6960
:100DE0001A434B6913438A691A43CB6913434A6A0E
:100DF0001A438B6A13430360CA6842600A688260C0
:100E00004968C16070470029016802D001220A4385
:100E100001E00B4A0A400260704741607047002AB7
:100E2000026802D01143016070478A430260704734
:100E300000BFC10001D5044900E0024908607047C5
:100E4000FEFF000004000240040402400F80FFFF88
:100E50000288C1239B0113400A881A43CB8913439C
:100E6000CA881A430B8913434A891A438B8913434F
:100E700003808288144B13408A881A4382800A8A2E
:100E800002820288114B1340498819430180818BEB
:100E90000F4A0A40828370470029018802D040220D
:100EA0000A4301E00B4A0A4002807047002A828808
:100EB00000D005E08A438280704713408380828897
:100EC0001143818070470000FFF00000FBFF00002D
:100ED000FFF70000BFFF0000F8B58AB00121480409
:100EE000FFF7ACFE01218804FFF7A8FE02266D463D
:100EF0002E710024AC710096EC716C7169461E482D
:100F0000FFF7E4FE032028710127AF710096EC7112
:100F10006C7169469020C005FFF7D8FE00220121C0
:100F20001548FFF70CFF01210802FFF79BFE02A8FE
:100F300004814480FA2189000391048084720F4D5A
:100F4000280000F0DFF802A9280000F031F90121A3
:100F5000280000F059F905A804826021018044822C
:100F6000C460848047800648079005A9280000F0E7
:100F700059F90BB0F0BD000000040048002000400B
:100F8000EE020000F8B58AB001214804FFF756FED2
:100F90006D46022028710024AC7140200090EC7155
:100FA0006C719026F60569463000FFF78FFE8020B1
:100FB000009069463000FFF789FE03202871012068
:100FC000A8710090EC716C7169463000FFF77EFEED
:100FD000012206213000FFF7B2FE01220721300076
:100FE000FFF7ADFE01210220FFF73CFE07A80481B8
:100FF00020214180FA214900089104808472174F12
:10100000380000F07FF807A9380000F0D1F801217E
:10101000380000F0F9F802AD2C8260262E806C8238
:10102000EC60AC80012068802320049002A9380085
:1010300000F0F8F8B80D28822E806C82EC81022036
:10104000A881AC8001206880FF20D230049002A9E2
:10105000380000F025F90BB0F0BD00BF00040040DF
:101060001449884200D0704710B54C0D0121200072
:10107000FFF702FE00212000FFF7FEFD10BDC26851
:101080000D4B13400A681A430B795B0313438A68BC
:101090001A43CB6813430A691A4349691143C16073
:1010A00070470029816801D0012200E002220A4332
:1010B000826070470024014003D2FFFF431C017887
:1010C000401C0942FBD1C01A7047FEE7094214D008
:1010D00088420FD30122030C01D100041204002323
:1010E00000185B418B4200D35B1A5241F8D31900C0
:1010F0001000704701000020704708B500F028F983
:1011000008BDFEE710B54649884201D1CC0C46E047
:101110008021C905884206D101210120FFF7B6FDD3
:101120000021012027E05849884206D101210220F0
:10113000FFF7ACFD002102201DE05449884206D192
:1011400001211020FFF7A2FD0021102013E05049DB
:10115000884206D101212020FFF798FD00212020A0
:1011600009E04C49884209D18C0D01212000FFF78C
:101170008DFD00212000FFF789FD10BD4649884202
:1011800002D1802464020AE04449884202D18024CA
:10119000A40204E05F49884209D18024E4020121CD
:1011A0002000FFF769FD00212000FFF765FD10BD5D
:1011B00010B503881A4A904206D08024E405A04264
:1011C00002D0314CA04203D1504C1C404B882343E9
:1011D0002E4CA04203D04E4C1C400B89234303806D
:1011E0004B68C3620B880385904208D02A4A90421C
:1011F00005D02A4A904202D0464A904201D1897ACB
:1012000001860121818210BD0029018802D00122BE
:101210000A4301E0404A0A40028070470000000093
:10122000002C014070B5028C3B4B13400384048CAE
:101230008288038B3A4D1D400B882B43374D254048
:101240008E892E434C883443374DA84208D0124D26
:10125000A84205D0114DA84202D02E4DA8420DD172
:10126000334D2540CC892C432E4D25408C882C4372
:10127000274D15400E8A2E434A8A324382800383CB
:1012800089684163048470BD000400400010004080
:101290000014004000200040004001400044014094
:1012A00070B5028C234B13400384048C8288038B1B
:1012B000214D1D400B881B022B43204D25408C895E
:1012C0004E88264334012C43174DA84202D01C4EB1
:1012D000B04215D11B4E16400A8A92003243A842F2
:1012E0000ED1124D2540CC8924012C43164D2540AA
:1012F0008C8824012C43154D15404A8A92002A43BC
:101300008280038389688163048470BD8FFF00003D
:10131000FFFC000000480140FEFF0000FDFF000050
:101320008CFF0000FBFF0000002C01407FFF00004D
:10133000F7FF0000EFFF0000FF8C0000DFFF000060
:1013400000400140FFFB0000BFFF0000FFF700006E
:101350007047FEE70000000000000000FA000000F7
:1013600000C000C0000028FE28FE280000325EF207
:101370004C00006668166600001CF2B24C000000CB
:1013800000C0000000007C8200000000827C0000A1
:1013900000387C38000000107C10000000000006BF
:1013A00000000010101010000000020000000002F9
:1013B0000C30C000007C82827C000042FE020000F3
:1013C00000468A926200004492926C00001C64FE07
:1013D000040000F292928C00007C92924C0000C0BB
:1013E0008E90E000006C92926C00006492927C00FF
:1013F0000000240000000002240000000010284427
:10140000820000282828280000824428100000407C
:101410008A90600000708E927E00007E88887E0038
:1014200000FE92926C00007C8282440000FE828268
:101430007C0000FE9292820000FE90908000007C72
:1014400082925C0000FE1010FE000082FE8200000E
:10145000000C0202FC0000FE1028C60000FE020282
:10146000020000FE6060FE0000FE6018FE0000FE4C
:101470008282FE0000FE90906000007C8A867E00E2
:1014800000FE98946200006492924C000080FE80FE
:10149000800000FC0202FC0000F00E0EF00000FED6
:1014A0000C0CFE0000C63838C600C0201E20C0004C
:1014B00000869AB2C2000000FE820000C0300C021A
:1014C0000000000082FE000000408040000000029A
:1014D000020202000000C000000000041A1A1E00F0
:1014E00000FE12120C00000C12121200000C12125C
:1014F000FE00000C1A1A080000103E5010000008F0
:1015000015151E0000FE101E000000002E00000039
:101510000001012E000000FE081412000002FE026D
:101520000000001E101E1E00001E10100E00000CF9
:1015300012120C00001F12120C00000C12121F00DD
:10154000001E08101000000A1A16140000103E12A7
:101550000000001C02021E000018060618001806F3
:101560001C06180000120C0C1200001805051E00C5
:101570000012161A12000010EE8200000000FE0099
:1015800000000082EE10000000408040800000005B
:1015900010B55C49884208D18024E4010121200073
:1015A000FFF76AFB002120003CE05749884202D146
:1015B0008024A40210E05949884202D18024E40228
:1015C0000AE05749884202D18024240304E05549A7
:1015D00088420AD18024640301212000FFF756FBD2
:1015E00000212000FFF752FB10BD4F49884206D171
:1015F00001212020FFF740FB0021202012E04B4971
:10160000884206D101214020FFF736FB002140200F
:1016100008E04749884207D101218020FFF72CFBD1
:1016200000218020FFF728FB10BDF8B58AB0040028
:101630000D00206801218843206060683D49014019
:10164000A8680843606020683B4901406868084317
:10165000E9680143286908432060A06837490140D0
:1016600068690843A0606846FFF740FA254884424D
:1016700001D1069E0AE02448844201D1079E05E07C
:101680002648844201D1089E00E0029E2D68206811
:10169000000400D5760030002900FFF717FD070091
:1016A00030002900FFF712FD6808814200D37F1C3B
:1016B0002068000404D52248384039074F0F0743FB
:1016C000A7810BB0F0BD0029016803D001220A43B5
:1016D0000260704701229143016070470029416810
:1016E00003D0802212040A4301E0214A0A404260EA
:1016F00070474269120E120642614269114341610C
:10170000704700000038014000440040C905C90D81
:1017100001857047808CC005C00D704700480040AF
:10172000004C0040005000400014014000180140EF
:10173000001C0140FFCFFFFFF3E9FFFFFFFCFFFFAD
:10174000F0FF000010B50B041B0E01248C40022B8F
:1017500001D1001D02E0032B00D10830002A0168EE
:1017600002D00C43046010BDA143016010BD000015
:10177000FFFF7FFF02000020D269114000D001204E
:10178000704730B5020000200C04240E01258D4066
:10179000012C01D1146804E0022C01D1546800E04E
:1017A00094682C40090C01258D40D1692940002CFA
:1017B00002D0002900D0012030BD0122090C8A404E
:1017C00002627047F0B589B001214804FFF736FA8C
:1017D00001218803FFF73CFA022601AD2E71002497
:1017E000AC7130020190EC716C719027FF0501A97A
:1017F0003800FFF76BFA2E710126AE71B00201902E
:10180000EC716C7101A93800FFF760FA01220A211E
:101810003800FFF794FA012209213800FFF78FFA08
:10182000E1204002039008940C2007900694059450
:10183000049468461B210170867004214170FFF7F3
:101840008FFA344C2000FFF7A3FE03A92000FFF716
:10185000ECFEFA2189002000FFF74BFF0121200058
:10186000FFF73CFF01222C492000FFF76BFF01220C
:101870002A492000FFF766FF01212000FFF723FF20
:1018800009B0F0BD10B50100224C2000FFF73EFF6B
:1018900080212000FFF76EFF0028F9D010BD70B541
:1018A00004000D001B4E0AE021783000FFF72EFFE8
:1018B00080213000FFF75EFF0028F9D0641C28006B
:1018C000451E0006F0D170BD38B5154C08252821FD
:1018D0002000FFF7E4FF0D20FFF7D4FF0A20FFF7F9
:1018E000D1FF28346D1EF2D131BD70B50D4A0021F3
:1018F0000024155D065DB54202D1641C042CF8DBA2
:10190000121D042C04D0491CCCB2092CF0DB70BD94
:10191000C8B270BD00380140050105001A010B0076
:1019200028190008081E00082D2D2D2D2D2D2D2DD8
:101930002D2D2D2D2D56464432383031362056313E
:101940002E312D2D2D2D2D2D2D2D2D2D2D2D2D2DC2
:101950002D2D2D2D2D2D2D2D2D2D2D2D2D2D2D578D
:1019600065736C65792058752D2D2D2D2D2D2D2D00
:101970002D2D2D2D2D2D2D2D2D2D2D2D2D2D2D2D97
:101980002D2D2D2D2D436F6D6D616E6473206C694F
:1019900073742D2D2D2D2D2D2D2D2D2D2D2D2D2DEA
:1019A000434C5253203A436C6561727363726565B0
:1019B0006E202020202020202020202020202020D9
:1019C000202020202020202041534348202A2E2E52
:1019D0002A3A57726974652038783136204153436A
:1019E00049492C6D617820333520696E70757473A8
:1019F0004153434C202A2E2E2A3A5772697465208F
:101A00003678382041534349492C6D61782034366B
:101A100020696E7075747320444F54432078787831
:101A20002C79792C643A57726974652070697865ED
:101A30006C20617420782C79206F6E2F6F66662081
:101A40005752414D202A2E2E2A203A57726974652A
:101A50002052414D206461746120696E2068657870
:101A600020202020202020207047FEE7704770476C
:101A700040480178002900D1704710B5002101705D
:101A8000FEF7D0FE802149013B48FFF756F93B4C59
:101A900000212000FFF7B7F90C212000FFF7BDF966
:101AA00001212000FFF7AFF910BD38B59024E405FF
:101AB00080256D0029002000FFF73DF901202D4908
:101AC000087001032C48FFF736F929002000FFF7C2
:101AD00034F96800FFF7ACF931BDF8B5284C8F2018
:101AE00080002718274D284E31002800FFF749FEB7
:101AF000002836D031002800FFF75FFE3888002824
:101B000036D02000FFF7F1FE012808D002280CD0C3
:101B1000062810D0072811D0082812D01EE0621D18
:101B200000210020FEF7BCFF18E0621D002100200C
:101B3000FEF77EFF12E0FEF7BBFD0FE0FFF7C4FEED
:101B40000CE03888411F114804E08AB2631D9B5C99
:101B5000821893700A00511E1204F6D100203880BA
:101B6000F1BD2800FFF7D6FD39886054491C398043
:101B7000F1BD000044000020000400483000024095
:101B800048000020003801401A010B0088020020A4
:101B900082B03348016801220A4302604168314A39
:101BA0000A4042600168304A0A40026001682F4AD8
:101BB0000A40026041682E4A0A404260C16A0F2210
:101BC0009143C162016B2B4A0A400263416B0122BF
:101BD00091434163002181600091019101681204E9
:101BE0000A4302600168802292021140019100992B
:101BF000491C00910199002904D10099A022D20129
:101C00009142EFD101688903CA0F0192019901291C
:101C100024D11121184A1160416841604168416036
:101C20004168164A0A4042604168A022D2020A4333
:101C300042600168802252040A43026001688901FF
:101C4000FCD54168032291434160416802220A4366
:101C5000426041680C220A40082AFAD102B070475B
:101C6000001002400CB8FF08FFFFF6FEFFFFFBFF6D
:101C7000FFFFC0FFACFEFFFF00200240FF7FC0FF60
:101C800080B56846FF2101700121817002214170F9
:101C9000FFF766F80420C043FFF785F81348006893
:101CA0001349FFF713FA401E124988421DD8124A01
:101CB0005060124803681940C0231B060B430360A1
:101CC0000020906007201060FFF77CFDFFF7FCFD0F
:101CD000FEF7F4FC0A4A00210020FEF7E1FE012293
:101CE00002210848FFF7E2F8FEE7FEE74000002087
:101CF00070170000FFFFFF0010E000E020ED00E0A3
:101D0000E41D000800300140094880F308880420E1
:101D10000168090E1F22914205D106480121016088
:101D2000054800210160054880470548004700003C
:101D3000C00800201810024000000140911B00085C
:101D4000991E000870B40123002413E00168001DEF
:101D5000194202D04D466D1E49190C60091D121F13
:101D6000042AFAD20D00960701D50C80AD1C1A404A
:101D700000D02C700268001D002AE7D170BC7047AB
:101D800030B501684118446862088A188368E4071E
:101D90000DD54C461B190AE00C7864B2491C0D782D
:101DA000491C1D705B1C002C05D5641CF9D19142A7
:101DB000F2D10C3030BD641EF1D5F8E710B50749FB
:101DC00079441831064C7C44163404E0081D0A6836
:101DD000891888470100A142F8D110BD50000000C9
:101DE0006C000000554152543A31313532303020C8
:101DF0004E203820312C7479706520434D443F20AB
:101E0000666F7220746970004E554C4C41534348C4
:101E10004153434C4355525241444452444F54431E
:101E2000434C5253434D443F5752414D19FFFFFF1E
:101E300074040000480000200000000045FFFFFF80
:101E40008C000000460000000000002000F00DF8AB
:101E5000002801D0FFF7B2FF00BF00BF002000BF85
:101E600000BFFFF70DFF00F002F80120704780B5BA
:101E700000F002F801BDFEE70746384600F002F820
:101E8000FBE7FEE780B500BF00BF024A1100182043
:101E9000ABBEFBE72600020000BF00BF00BF00BFD3
:101EA000FFF7D4FFFEE7FEE7FEE7FEE7FEE7FEE70B
:101EB000FEE7FEE7FEE7FEE7FEE7FEE7FEE7FEE7FA
:101EC000FEE7FEE7FEE7FEE7FEE7FEE7E4000003CD
:101ED000F9000B010203040102030406070809F8D4
:0F1EE000000C0102030406070809006CDC020174
:0400000508001E9938
:00000001FF
